{
  "contractName": "DaiDex",
  "abi": [
    {
      "inputs": [
        {
          "name": "daiMatchingMarketAddress",
          "type": "address"
        },
        {
          "name": "dexdexAddress",
          "type": "address"
        },
        {
          "name": "daiAddress",
          "type": "address"
        },
        {
          "name": "wethAddress",
          "type": "address"
        }
      ],
      "payable": false,
      "stateMutability": "nonpayable",
      "type": "constructor"
    },
    {
      "payable": true,
      "stateMutability": "payable",
      "type": "fallback"
    },
    {
      "constant": false,
      "inputs": [
        {
          "name": "tokenToBuy",
          "type": "address"
        },
        {
          "name": "volumeTokenToBuy",
          "type": "uint256"
        },
        {
          "name": "volumeDai",
          "type": "uint256"
        },
        {
          "name": "volumeEth",
          "type": "uint256"
        },
        {
          "name": "ordersData",
          "type": "bytes"
        }
      ],
      "name": "buy",
      "outputs": [],
      "payable": false,
      "stateMutability": "nonpayable",
      "type": "function"
    },
    {
      "constant": false,
      "inputs": [
        {
          "name": "tokenToSell",
          "type": "address"
        },
        {
          "name": "volumeTokenToSell",
          "type": "uint256"
        },
        {
          "name": "volumeDai",
          "type": "uint256"
        },
        {
          "name": "volumeEth",
          "type": "uint256"
        },
        {
          "name": "ordersData",
          "type": "bytes"
        }
      ],
      "name": "sell",
      "outputs": [],
      "payable": false,
      "stateMutability": "nonpayable",
      "type": "function"
    }
  ],
  "bytecode": "0x608060405234801561001057600080fd5b50604051608080610b11833981016040908152815160208301519183015160609093015160008054600160a060020a0319908116600160a060020a039485161782556001805482169585169590951790945560028054851695841695909517909455600380549093169116179055610a8390819061008e90396000f30060806040526004361061004b5763ffffffff7c0100000000000000000000000000000000000000000000000000000000600035041663247d525e811461004d5780638bfc7764146100c1575b005b34801561005957600080fd5b50604080516020601f60843560048181013592830184900484028501840190955281845261004b94600160a060020a03813516946024803595604435956064359536959460a49490939101919081908401838280828437509497506101359650505050505050565b3480156100cd57600080fd5b50604080516020601f60843560048181013592830184900484028501840190955281845261004b94600160a060020a03813516946024803595604435956064359536959460a494909391019190819084018382808284375094975061056c9650505050505050565b600254604080517f23b872dd000000000000000000000000000000000000000000000000000000008152336004820152306024820152604481018690529051600092600160a060020a0316916323b872dd91606480830192602092919082900301818787803b1580156101a757600080fd5b505af11580156101bb573d6000803e3d6000fd5b505050506040513d60208110156101d157600080fd5b505115156101de57600080fd5b60025460008054604080517f095ea7b3000000000000000000000000000000000000000000000000000000008152600160a060020a039283166004820152602481018990529051919093169263095ea7b39260448083019360209390929083900390910190829087803b15801561025457600080fd5b505af1158015610268573d6000803e3d6000fd5b505050506040513d602081101561027e57600080fd5b505060008054600354600254604080517f144a2752000000000000000000000000000000000000000000000000000000008152600160a060020a03938416600482015291831660248301526044820189905251919092169263144a275292606480820193602093909283900390910190829087803b1580156102ff57600080fd5b505af1158015610313573d6000803e3d6000fd5b505050506040513d602081101561032957600080fd5b505160008054600354600254604080517f8185402b000000000000000000000000000000000000000000000000000000008152600160a060020a039384166004820152602481018790529183166044830152606482018a905251949550911692638185402b92608480840193602093929083900390910190829087803b1580156103b257600080fd5b505af11580156103c6573d6000803e3d6000fd5b505050506040513d60208110156103dc57600080fd5b5050600354604080517f2e1a7d4d000000000000000000000000000000000000000000000000000000008152600481018490529051600160a060020a0390921691632e1a7d4d9160248082019260009290919082900301818387803b15801561044457600080fd5b505af1158015610458573d6000803e3d6000fd5b50506001546040517f321a9ab9000000000000000000000000000000000000000000000000000000008152600160a060020a038a811660048301908152602483018b9052336064840181905260006084850181905260a0604486019081528a5160a48701528a5194909616975063321a9ab9965088958e958e958c95929160c401906020870190808383885b838110156104fc5781810151838201526020016104e4565b50505050905090810190601f1680156105295780820380516001836020036101000a031916815260200191505b5096505050505050506000604051808303818588803b15801561054b57600080fd5b505af115801561055f573d6000803e3d6000fd5b5050505050505050505050565b604080517f23b872dd000000000000000000000000000000000000000000000000000000008152336004820152306024820152604481018690529051600091600160a060020a038816916323b872dd9160648082019260209290919082900301818787803b1580156105dd57600080fd5b505af11580156105f1573d6000803e3d6000fd5b505050506040513d602081101561060757600080fd5b5051151561061457600080fd5b600154604080517f095ea7b3000000000000000000000000000000000000000000000000000000008152600160a060020a0392831660048201526024810188905290519188169163095ea7b3916044808201926020929091908290030181600087803b15801561068357600080fd5b505af1158015610697573d6000803e3d6000fd5b505050506040513d60208110156106ad57600080fd5b50506001546040517fce687361000000000000000000000000000000000000000000000000000000008152600160a060020a038881166004830190815260248301899052604483018790523060848401819052600060a4850181905260c060648601908152885160c48701528851949096169563ce687361958d958d958c958c95909490939192909160e401906020870190808383885b8381101561075c578181015183820152602001610744565b50505050905090810190601f1680156107895780820380516001836020036101000a031916815260200191505b50975050505050505050600060405180830381600087803b1580156107ad57600080fd5b505af11580156107c1573d6000803e3d6000fd5b50505050600360009054906101000a9004600160a060020a0316600160a060020a031663d0e30db0846040518263ffffffff167c01000000000000000000000000000000000000000000000000000000000281526004016000604051808303818588803b15801561083157600080fd5b505af1158015610845573d6000803e3d6000fd5b505060035460008054604080517f095ea7b3000000000000000000000000000000000000000000000000000000008152600160a060020a039283166004820152602481018b9052905191909316955063095ea7b39450604480840194506020939192918390030190829087803b1580156108be57600080fd5b505af11580156108d2573d6000803e3d6000fd5b505050506040513d60208110156108e857600080fd5b505060008054600254600354604080517f8185402b000000000000000000000000000000000000000000000000000000008152600160a060020a039384166004820152602481018a9052918316604483015260648201889052519190921692638185402b92608480820193602093909283900390910190829087803b15801561097057600080fd5b505af1158015610984573d6000803e3d6000fd5b505050506040513d602081101561099a57600080fd5b50519050838110156109ab57600080fd5b600254604080517fa9059cbb000000000000000000000000000000000000000000000000000000008152336004820152602481018490529051600160a060020a039092169163a9059cbb916044808201926020929091908290030181600087803b158015610a1857600080fd5b505af1158015610a2c573d6000803e3d6000fd5b505050506040513d6020811015610a4257600080fd5b50511515610a4f57600080fd5b5050505050505600a165627a7a723058205f8b24a402e95ae0bfd776c70d6ebd8e57fc6c819e29e72481da0806055c06770029",
  "source": "pragma solidity ^0.4.23;\n\n//import \"zos-lib/contracts/migrations/Migratable.sol\";\n\n\ncontract IStandardToken {\n  function transfer(address to, uint256 value) public returns (bool) {}\n  function transferFrom(address _from, address _to, uint256 _value) public returns (bool) {}\n  function approve(address _spender, uint256 _value) public returns (bool) {}\n  function balanceOf(address _owner) external view returns (uint balance) {}\n}\n\ncontract IWeth is IStandardToken {\n    function deposit() public payable {}\n    function withdraw(uint wad) public {}\n}\n\ncontract IDaiMatchingMarket {\n    function sellAllAmount(IStandardToken pay_gem, uint pay_amt, IStandardToken buy_gem, uint min_fill_amount) public returns (uint fill_amt) {}\n    function buyAllAmount(IStandardToken buy_gem, uint buy_amt, IStandardToken pay_gem, uint max_fill_amount) public returns (uint fill_amt) {}\n    function getBuyAmount(IStandardToken buy_gem, IStandardToken pay_gem, uint pay_amt) public constant returns (uint fill_amt) {}\n}\n\ncontract IDexdex {\n    function buy(IStandardToken tradeable, uint volume, bytes ordersData, address destinationAddr, address affiliate\n    ) external payable {}\n\n    function sell(IStandardToken tradeable,\n    uint volume,\n    uint volumeEth,\n    bytes ordersData,\n    address destinationAddr,\n    address affiliate\n  ) external {}\n}\n\ncontract DaiDex /*is Migratable*/ {\n\n    IDaiMatchingMarket daiMatchingMarket;\n    IDexdex dexdex;\n    IStandardToken dai;\n    IWeth weth;\n\n    function DaiDex(\n      address daiMatchingMarketAddress,\n      address dexdexAddress,\n      address daiAddress,\n      address wethAddress\n    ) {\n      daiMatchingMarket = IDaiMatchingMarket(daiMatchingMarketAddress);\n      dexdex = IDexdex(dexdexAddress);\n      dai = IStandardToken(daiAddress);\n      weth = IWeth(wethAddress);\n    }\n\n  function() public payable {}\n\n  /*\n   * Buys ECR20 Token using DAI, only if the exchanged amount of DAI to ETH doesn't exceed a given ETH amount.\n   */\n  function buy(IStandardToken tokenToBuy, uint volumeTokenToBuy, uint volumeDai, uint volumeEth, bytes ordersData) {\n    // Obtain Dai From Sender. Sender previously executed a transaction approving Dai transfer to this contract.\n    require(dai.transferFrom(msg.sender, this, volumeDai));\n    dai.approve(address(daiMatchingMarket), volumeDai);\n\n    uint volumeWethEffective = daiMatchingMarket.getBuyAmount(weth, dai, volumeDai);\n\n    daiMatchingMarket.buyAllAmount(weth, volumeWethEffective, dai, volumeDai);\n    //require(volumeWethEffective >= volumeEth, \"Effective Eth Volume is lower than expected\");\n    weth.withdraw(volumeWethEffective);\n\n    dexdex.buy.value(volumeWethEffective)(tokenToBuy, volumeTokenToBuy, ordersData, msg.sender, address(0));\n\n  }\n\n  function sell(IStandardToken tokenToSell, uint volumeTokenToSell, uint volumeDai, uint volumeEth, bytes ordersData) {\n\n    require(tokenToSell.transferFrom(msg.sender, this, volumeTokenToSell));\n\n    tokenToSell.approve(address(dexdex), volumeTokenToSell);\n    dexdex.sell(tokenToSell, volumeTokenToSell, volumeEth, ordersData, this, address(0));\n\n    weth.deposit.value(volumeEth)();\n    weth.approve(address(daiMatchingMarket), volumeEth);\n    uint volumeDaiEffective = daiMatchingMarket.buyAllAmount(dai, volumeDai, weth, volumeEth);\n    require(volumeDaiEffective >= volumeDai);\n\n    require(dai.transfer(msg.sender, volumeDaiEffective));\n  }\n\n\n}\n",
  "sourcePath": "/home/daniel/projects/daidex/contracts/DaiDex.sol",
  "compiler": {
    "name": "solc",
    "version": "0.4.24+commit.e67f0147.Emscripten.clang"
  },
  "schemaVersion": "2.0.0",
  "updatedAt": "2018-05-27T02:51:16.668Z"
}