{
  "contractName": "DaiDex",
  "abi": [
    {
      "inputs": [
        {
          "name": "daiMatchingMarketAddress",
          "type": "address"
        },
        {
          "name": "dexdexAddress",
          "type": "address"
        },
        {
          "name": "daiAddress",
          "type": "address"
        },
        {
          "name": "wethAddress",
          "type": "address"
        }
      ],
      "payable": false,
      "stateMutability": "nonpayable",
      "type": "constructor"
    },
    {
      "payable": true,
      "stateMutability": "payable",
      "type": "fallback"
    },
    {
      "constant": false,
      "inputs": [
        {
          "name": "tokenToBuy",
          "type": "address"
        },
        {
          "name": "volumeTokenToBuy",
          "type": "uint256"
        },
        {
          "name": "volumeDai",
          "type": "uint256"
        },
        {
          "name": "volumeEth",
          "type": "uint256"
        },
        {
          "name": "ordersData",
          "type": "bytes"
        }
      ],
      "name": "buy",
      "outputs": [],
      "payable": false,
      "stateMutability": "nonpayable",
      "type": "function"
    },
    {
      "constant": false,
      "inputs": [
        {
          "name": "tokenToSell",
          "type": "address"
        },
        {
          "name": "volumeTokenToSell",
          "type": "uint256"
        },
        {
          "name": "volumeDai",
          "type": "uint256"
        },
        {
          "name": "volumeEth",
          "type": "uint256"
        },
        {
          "name": "ordersData",
          "type": "bytes"
        }
      ],
      "name": "sell",
      "outputs": [],
      "payable": false,
      "stateMutability": "nonpayable",
      "type": "function"
    }
  ],
  "bytecode": "0x608060405234801561001057600080fd5b50604051608080610b28833981016040908152815160208301519183015160609093015160008054600160a060020a0319908116600160a060020a039485161782556001805482169585169590951790945560028054851695841695909517909455600380549093169116179055610a9a90819061008e90396000f30060806040526004361061004b5763ffffffff7c0100000000000000000000000000000000000000000000000000000000600035041663247d525e811461004d5780638bfc7764146100c1575b005b34801561005957600080fd5b50604080516020601f60843560048181013592830184900484028501840190955281845261004b94600160a060020a03813516946024803595604435956064359536959460a49490939101919081908401838280828437509497506101359650505050505050565b3480156100cd57600080fd5b50604080516020601f60843560048181013592830184900484028501840190955281845261004b94600160a060020a03813516946024803595604435956064359536959460a494909391019190819084018382808284375094975061057d9650505050505050565b60008054600254600354604080517fff1fd974000000000000000000000000000000000000000000000000000000008152600160a060020a03938416600482015291831660248301526044820187905251919092169163ff1fd97491606480830192602092919082900301818787803b1580156101b157600080fd5b505af11580156101c5573d6000803e3d6000fd5b505050506040513d60208110156101db57600080fd5b50519050838111156101ec57600080fd5b600254604080517f23b872dd000000000000000000000000000000000000000000000000000000008152600160a060020a033381166004830152308116602483015260448201859052915191909216916323b872dd9160648083019260209291908290030181600087803b15801561026357600080fd5b505af1158015610277573d6000803e3d6000fd5b505050506040513d602081101561028d57600080fd5b5051151561029a57600080fd5b60025460008054604080517f095ea7b3000000000000000000000000000000000000000000000000000000008152600160a060020a039283166004820152602481018690529051919093169263095ea7b39260448083019360209390929083900390910190829087803b15801561031057600080fd5b505af1158015610324573d6000803e3d6000fd5b505050506040513d602081101561033a57600080fd5b505060008054600354600254604080517f8185402b000000000000000000000000000000000000000000000000000000008152600160a060020a03938416600482015260248101899052918316604483015260648201869052519190921692638185402b92608480820193602093909283900390910190829087803b1580156103c257600080fd5b505af11580156103d6573d6000803e3d6000fd5b505050506040513d60208110156103ec57600080fd5b5050600354604080517f2e1a7d4d000000000000000000000000000000000000000000000000000000008152600481018690529051600160a060020a0390921691632e1a7d4d9160248082019260009290919082900301818387803b15801561045457600080fd5b505af1158015610468573d6000803e3d6000fd5b50506001546040517f321a9ab9000000000000000000000000000000000000000000000000000000008152600160a060020a038a811660048301908152602483018b905233808316606485015260006084850181905260a0604486019081528a5160a48701528a5194909616975063321a9ab996508a958e958e958c95929160c401906020870190808383885b8381101561050d5781810151838201526020016104f5565b50505050905090810190601f16801561053a5780820380516001836020036101000a031916815260200191505b5096505050505050506000604051808303818588803b15801561055c57600080fd5b505af1158015610570573d6000803e3d6000fd5b5050505050505050505050565b604080517f23b872dd000000000000000000000000000000000000000000000000000000008152600160a060020a03338116600483015230811660248301526044820187905291516000928816916323b872dd91606480830192602092919082900301818787803b1580156105f157600080fd5b505af1158015610605573d6000803e3d6000fd5b505050506040513d602081101561061b57600080fd5b5051151561062857600080fd5b600154604080517f095ea7b3000000000000000000000000000000000000000000000000000000008152600160a060020a0392831660048201526024810188905290519188169163095ea7b3916044808201926020929091908290030181600087803b15801561069757600080fd5b505af11580156106ab573d6000803e3d6000fd5b505050506040513d60208110156106c157600080fd5b50506001546040517fce687361000000000000000000000000000000000000000000000000000000008152600160a060020a03888116600483019081526024830189905260448301879052308083166084850152600060a4850181905260c060648601908152885160c48701528851949096169563ce687361958d958d958c958c95909490939192909160e401906020870190808383885b83811015610771578181015183820152602001610759565b50505050905090810190601f16801561079e5780820380516001836020036101000a031916815260200191505b50975050505050505050600060405180830381600087803b1580156107c257600080fd5b505af11580156107d6573d6000803e3d6000fd5b50505050600360009054906101000a9004600160a060020a0316600160a060020a031663d0e30db0846040518263ffffffff167c01000000000000000000000000000000000000000000000000000000000281526004016000604051808303818588803b15801561084657600080fd5b505af115801561085a573d6000803e3d6000fd5b505060035460008054604080517f095ea7b3000000000000000000000000000000000000000000000000000000008152600160a060020a039283166004820152602481018b9052905191909316955063095ea7b39450604480840194506020939192918390030190829087803b1580156108d357600080fd5b505af11580156108e7573d6000803e3d6000fd5b505050506040513d60208110156108fd57600080fd5b505060008054600254600354604080517f8185402b000000000000000000000000000000000000000000000000000000008152600160a060020a039384166004820152602481018a9052918316604483015260648201889052519190921692638185402b92608480820193602093909283900390910190829087803b15801561098557600080fd5b505af1158015610999573d6000803e3d6000fd5b505050506040513d60208110156109af57600080fd5b50519050838110156109c057600080fd5b600254604080517fa9059cbb000000000000000000000000000000000000000000000000000000008152600160a060020a033381166004830152602482018590529151919092169163a9059cbb9160448083019260209291908290030181600087803b158015610a2f57600080fd5b505af1158015610a43573d6000803e3d6000fd5b505050506040513d6020811015610a5957600080fd5b50511515610a6657600080fd5b5050505050505600a165627a7a723058209476f874b36242eb96b9f315d23d599aa17bb87ad8290bd44b06f89dac1b156a0029",
  "source": "pragma solidity ^0.4.23;\n\n//import \"zos-lib/contracts/migrations/Migratable.sol\";\n\n\ncontract IStandardToken {\n  function transfer(address to, uint256 value) public returns (bool) {}\n  function transferFrom(address _from, address _to, uint256 _value) public returns (bool) {}\n  function approve(address _spender, uint256 _value) public returns (bool) {}\n  function balanceOf(address _owner) external view returns (uint balance) {}\n}\n\ncontract IWeth is IStandardToken {\n    function deposit() public payable {}\n    function withdraw(uint wad) public {}\n}\n\ncontract IDaiMatchingMarket {\n    function sellAllAmount(IStandardToken pay_gem, uint pay_amt, IStandardToken buy_gem, uint min_fill_amount) public returns (uint fill_amt) {}\n    function buyAllAmount(IStandardToken buy_gem, uint buy_amt, IStandardToken pay_gem, uint max_fill_amount) public returns (uint fill_amt) {}\n    function getBuyAmount(IStandardToken buy_gem, IStandardToken pay_gem, uint pay_amt) public constant returns (uint fill_amt) {}\n    function getPayAmount(IStandardToken pay_gem, IStandardToken buy_gem, uint buy_amt) public constant returns (uint fill_amt) {}\n}\n\ncontract IDexdex {\n    function buy(IStandardToken tradeable, uint volume, bytes ordersData, address destinationAddr, address affiliate\n    ) external payable {}\n\n    function sell(IStandardToken tradeable,\n    uint volume,\n    uint volumeEth,\n    bytes ordersData,\n    address destinationAddr,\n    address affiliate\n  ) external {}\n}\n\ncontract DaiDex /*is Migratable*/ {\n\n    IDaiMatchingMarket daiMatchingMarket;\n    IDexdex dexdex;\n    IStandardToken dai;\n    IWeth weth;\n\n    function DaiDex(\n      address daiMatchingMarketAddress,\n      address dexdexAddress,\n      address daiAddress,\n      address wethAddress\n    ) {\n      daiMatchingMarket = IDaiMatchingMarket(daiMatchingMarketAddress);\n      dexdex = IDexdex(dexdexAddress);\n      dai = IStandardToken(daiAddress);\n      weth = IWeth(wethAddress);\n    }\n\n  function() public payable {}\n\n  /*\n   * Buys ECR20 Token using DAI, only if the exchanged amount of DAI to ETH doesn't exceed a given ETH amount.\n   */\n  function buy(IStandardToken tokenToBuy, uint volumeTokenToBuy, uint volumeDai, uint volumeEth, bytes ordersData) {\n\n    // We check that we can still buy volumeEth with those volumeDai\n    uint volumeDaiEffective = daiMatchingMarket.getPayAmount(dai, weth, volumeEth);\n    require(volumeDaiEffective <= volumeDai);\n\n    // Obtain Dai From Sender. Sender previously executed a transaction approving Dai transfer to this contract.\n    require(dai.transferFrom(msg.sender, this, volumeDaiEffective));\n    // allow matchingMarket to trade for us\n    dai.approve(address(daiMatchingMarket), volumeDaiEffective);\n    daiMatchingMarket.buyAllAmount(weth, volumeEth, dai, volumeDaiEffective);\n    weth.withdraw(volumeEth);\n\n    dexdex.buy.value(volumeEth)(tokenToBuy, volumeTokenToBuy, ordersData, msg.sender, address(0));\n  }\n\n  function sell(IStandardToken tokenToSell, uint volumeTokenToSell, uint volumeDai, uint volumeEth, bytes ordersData) {\n\n    require(tokenToSell.transferFrom(msg.sender, this, volumeTokenToSell));\n\n    tokenToSell.approve(address(dexdex), volumeTokenToSell);\n    dexdex.sell(tokenToSell, volumeTokenToSell, volumeEth, ordersData, this, address(0));\n\n    weth.deposit.value(volumeEth)();\n    weth.approve(address(daiMatchingMarket), volumeEth);\n    uint volumeDaiEffective = daiMatchingMarket.buyAllAmount(dai, volumeDai, weth, volumeEth);\n    require(volumeDaiEffective >= volumeDai);\n\n    require(dai.transfer(msg.sender, volumeDaiEffective));\n  }\n\n\n}\n",
  "sourcePath": "/Users/mcortesi/Work/hackathon/daidex/contracts/DaiDex.sol",
  "compiler": {
    "name": "solc",
    "version": "0.4.23+commit.124ca40d.Emscripten.clang"
  },
  "schemaVersion": "2.0.0",
  "updatedAt": "2018-05-27T03:57:56.034Z"
}