{
  "contractName": "IDexdex",
  "abi": [
    {
      "constant": false,
      "inputs": [
        {
          "name": "tradeable",
          "type": "address"
        },
        {
          "name": "volume",
          "type": "uint256"
        },
        {
          "name": "ordersData",
          "type": "bytes"
        },
        {
          "name": "destinationAddr",
          "type": "address"
        },
        {
          "name": "affiliate",
          "type": "address"
        }
      ],
      "name": "buy",
      "outputs": [],
      "payable": true,
      "stateMutability": "payable",
      "type": "function"
    },
    {
      "constant": false,
      "inputs": [
        {
          "name": "tradeable",
          "type": "address"
        },
        {
          "name": "volume",
          "type": "uint256"
        },
        {
          "name": "volumeEth",
          "type": "uint256"
        },
        {
          "name": "ordersData",
          "type": "bytes"
        },
        {
          "name": "destinationAddr",
          "type": "address"
        },
        {
          "name": "affiliate",
          "type": "address"
        }
      ],
      "name": "sell",
      "outputs": [],
      "payable": false,
      "stateMutability": "nonpayable",
      "type": "function"
    }
  ],
  "bytecode": "0x608060405234801561001057600080fd5b50610114806100206000396000f30060806040526004361060485763ffffffff7c0100000000000000000000000000000000000000000000000000000000600035041663321a9ab98114604d578063ce68736114608b575b600080fd5b608973ffffffffffffffffffffffffffffffffffffffff60048035821691602480359260443591820192910135906064358116906084351660d7565b005b348015609657600080fd5b5060896004803573ffffffffffffffffffffffffffffffffffffffff908116916024803592604435926064359283019201359060843581169060a4351660df565b505050505050565b505050505050505600a165627a7a723058205fcc5bf5cd39cc31015b12780f5b0a20c3d020204dd8ab4806a1af4a674e6f670029",
  "source": "pragma solidity ^0.4.23;\n\n//import \"zos-lib/contracts/migrations/Migratable.sol\";\n\n\ncontract IStandardToken {\n  function transfer(address to, uint256 value) public returns (bool) {}\n  function transferFrom(address _from, address _to, uint256 _value) public returns (bool) {}\n  function approve(address _spender, uint256 _value) public returns (bool) {}\n  function balanceOf(address _owner) external view returns (uint balance) {}\n}\n\ncontract IWeth is IStandardToken {\n    function deposit() public payable {}\n    function withdraw(uint wad) public {}\n}\n\ncontract IDaiMatchingMarket {\n    function sellAllAmount(IStandardToken pay_gem, uint pay_amt, IStandardToken buy_gem, uint min_fill_amount) public returns (uint fill_amt) {}\n    function buyAllAmount(IStandardToken buy_gem, uint buy_amt, IStandardToken pay_gem, uint max_fill_amount) public returns (uint fill_amt) {}\n    function getBuyAmount(IStandardToken buy_gem, IStandardToken pay_gem, uint pay_amt) public constant returns (uint fill_amt) {}\n    function getPayAmount(IStandardToken pay_gem, IStandardToken buy_gem, uint buy_amt) public constant returns (uint fill_amt) {}\n}\n\ncontract IDexdex {\n    function buy(IStandardToken tradeable, uint volume, bytes ordersData, address destinationAddr, address affiliate\n    ) external payable {}\n\n    function sell(IStandardToken tradeable,\n    uint volume,\n    uint volumeEth,\n    bytes ordersData,\n    address destinationAddr,\n    address affiliate\n  ) external {}\n}\n\ncontract DaiDex /*is Migratable*/ {\n\n    IDaiMatchingMarket daiMatchingMarket;\n    IDexdex dexdex;\n    IStandardToken dai;\n    IWeth weth;\n\n    function DaiDex(\n      address daiMatchingMarketAddress,\n      address dexdexAddress,\n      address daiAddress,\n      address wethAddress\n    ) {\n      daiMatchingMarket = IDaiMatchingMarket(daiMatchingMarketAddress);\n      dexdex = IDexdex(dexdexAddress);\n      dai = IStandardToken(daiAddress);\n      weth = IWeth(wethAddress);\n    }\n\n  function() public payable {}\n\n  /*\n   * Buys ECR20 Token using DAI, only if the exchanged amount of DAI to ETH doesn't exceed a given ETH amount.\n   */\n  function buy(IStandardToken tokenToBuy, uint volumeTokenToBuy, uint volumeDai, uint volumeEth, bytes ordersData) {\n\n    // We check that we can still buy volumeEth with those volumeDai\n    uint volumeDaiEffective = daiMatchingMarket.getPayAmount(dai, weth, volumeEth);\n    require(volumeDaiEffective <= volumeDai);\n\n    // Obtain Dai From Sender. Sender previously executed a transaction approving Dai transfer to this contract.\n    require(dai.transferFrom(msg.sender, this, volumeDaiEffective));\n    // allow matchingMarket to trade for us\n    dai.approve(address(daiMatchingMarket), volumeDaiEffective);\n    daiMatchingMarket.buyAllAmount(weth, volumeEth, dai, volumeDaiEffective);\n    weth.withdraw(volumeEth);\n\n    dexdex.buy.value(volumeEth)(tokenToBuy, volumeTokenToBuy, ordersData, msg.sender, address(0));\n  }\n\n  function sell(IStandardToken tokenToSell, uint volumeTokenToSell, uint volumeDai, uint volumeEth, bytes ordersData) {\n\n    require(tokenToSell.transferFrom(msg.sender, this, volumeTokenToSell));\n\n    tokenToSell.approve(address(dexdex), volumeTokenToSell);\n    dexdex.sell(tokenToSell, volumeTokenToSell, volumeEth, ordersData, this, address(0));\n\n    weth.deposit.value(volumeEth)();\n    weth.approve(address(daiMatchingMarket), volumeEth);\n    uint volumeDaiEffective = daiMatchingMarket.buyAllAmount(dai, volumeDai, weth, volumeEth);\n    require(volumeDaiEffective >= volumeDai);\n\n    require(dai.transfer(msg.sender, volumeDaiEffective));\n  }\n\n\n}\n",
  "sourcePath": "/Users/mcortesi/Work/hackathon/daidex/contracts/DaiDex.sol",
  "compiler": {
    "name": "solc",
    "version": "0.4.23+commit.124ca40d.Emscripten.clang"
  },
  "schemaVersion": "2.0.0",
  "updatedAt": "2018-05-27T03:57:56.031Z"
}