{
  "contractName": "IStandardToken",
  "abi": [
    {
      "constant": false,
      "inputs": [
        {
          "name": "to",
          "type": "address"
        },
        {
          "name": "value",
          "type": "uint256"
        }
      ],
      "name": "transfer",
      "outputs": [
        {
          "name": "",
          "type": "bool"
        }
      ],
      "payable": false,
      "stateMutability": "nonpayable",
      "type": "function"
    },
    {
      "constant": false,
      "inputs": [
        {
          "name": "_from",
          "type": "address"
        },
        {
          "name": "_to",
          "type": "address"
        },
        {
          "name": "_value",
          "type": "uint256"
        }
      ],
      "name": "transferFrom",
      "outputs": [
        {
          "name": "",
          "type": "bool"
        }
      ],
      "payable": false,
      "stateMutability": "nonpayable",
      "type": "function"
    },
    {
      "constant": false,
      "inputs": [
        {
          "name": "_spender",
          "type": "address"
        },
        {
          "name": "_value",
          "type": "uint256"
        }
      ],
      "name": "approve",
      "outputs": [
        {
          "name": "",
          "type": "bool"
        }
      ],
      "payable": false,
      "stateMutability": "nonpayable",
      "type": "function"
    }
  ],
  "bytecode": "0x608060405234801561001057600080fd5b5061010a806100206000396000f30060806040526004361060525763ffffffff7c0100000000000000000000000000000000000000000000000000000000600035041663095ea7b38114605757806323b872dd146099578063a9059cbb146057575b600080fd5b348015606257600080fd5b50608573ffffffffffffffffffffffffffffffffffffffff6004351660243560cd565b604080519115158252519081900360200190f35b34801560a457600080fd5b50608573ffffffffffffffffffffffffffffffffffffffff6004358116906024351660443560d5565b600092915050565b600093925050505600a165627a7a72305820ad67116a215a4533b2e70a7e9d61441957562b798a05cb0cd775bb686a4f6db30029",
  "source": "pragma solidity 0.4.23;\n\n//import \"zos-lib/contracts/migrations/Migratable.sol\";\n\n\ncontract IStandardToken {\n  function transfer(address to, uint256 value) public returns (bool) {}\n  function transferFrom(address _from, address _to, uint256 _value) public returns (bool) {}\n  function approve(address _spender, uint256 _value) public returns (bool) {}\n}\n\ncontract IWeth is IStandardToken {\n    function deposit() public payable {}\n    function withdraw(uint wad) public {}\n}\n\ncontract IDaiMatchingMarket {\n    function sellAllAmount(IStandardToken pay_gem, uint pay_amt, IStandardToken buy_gem, uint min_fill_amount) public returns (uint fill_amt) {}\n    function buyAllAmount(IStandardToken buy_gem, uint buy_amt, IStandardToken pay_gem, uint max_fill_amount) public returns (uint fill_amt) {}\n}\n\ncontract IDexdex {\n    function buy(IStandardToken tradeable, uint volume, bytes ordersData, address destinationAddr, address affiliate\n    ) external payable {}\n\n    function sell(IStandardToken tradeable,\n    uint volume,\n    uint volumeEth,\n    bytes ordersData,\n    address destinationAddr,\n    address affiliate\n  ) external {}\n}\n\ncontract DaiDex /*is Migratable*/ {\n\n    IDaiMatchingMarket daiMatchingMarket;\n    IDexdex dexdex;\n    IStandardToken dai;\n    IWeth weth;\n\n    function DaiDex(\n      address daiMatchingMarketAddress,\n      address dexdexAddress,\n      address daiAddress,\n      address wethAddress\n    ) {\n      daiMatchingMarket = IDaiMatchingMarket(daiMatchingMarketAddress);\n      dexdex = IDexdex(dexdexAddress);\n      dai = IStandardToken(daiAddress);\n      weth = IWeth(wethAddress);\n    }\n\n\n  /*\n   * Buys ECR20 Token using DAI, only if the exchanged amount of DAI to ETH doesn't exceed a given ETH amount.\n   */\n  function buy(IStandardToken tokenToBuy, uint volumeTokenToBuy, uint volumeDai, uint volumeEth, bytes ordersData) {\n    // Obtain Dai From Sender. Sender previously executed a transaction approving Dai transfer to this contract.\n    require(dai.transferFrom(msg.sender, this, volumeDai));\n\n    dai.approve(address(daiMatchingMarket), volumeDai);\n    uint volumeWethEffective = daiMatchingMarket.sellAllAmount(dai, volumeDai, weth, volumeEth);\n    require(volumeWethEffective >= volumeEth, \"Effective Eth Volume is lower than expected\");\n    weth.withdraw(volumeWethEffective);\n\n    dexdex.buy.value(volumeWethEffective)(tokenToBuy, volumeTokenToBuy, ordersData, msg.sender, address(0));\n\n  }\n\n  function sell(IStandardToken tokenToSell, uint volumeTokenToSell, uint volumeDai, uint volumeEth, bytes ordersData) {\n\n    require(tokenToSell.transferFrom(msg.sender, this, volumeTokenToSell));\n\n    tokenToSell.approve(address(dexdex), volumeTokenToSell);\n    dexdex.sell(tokenToSell, volumeTokenToSell, volumeEth, ordersData, this, address(0));\n\n    weth.deposit.value(volumeEth)();\n    weth.approve(address(daiMatchingMarket), volumeEth);\n    uint volumeDaiEffective = daiMatchingMarket.buyAllAmount(dai, volumeDai, weth, volumeEth);\n    require(volumeDaiEffective >= volumeDai);\n\n    require(dai.transfer(msg.sender, volumeDaiEffective));\n  }\n\n\n}\n",
  "sourcePath": "/Users/mcortesi/Work/hackathon/daidex/contracts/DaiDex.sol",
  "compiler": {
    "name": "solc",
    "version": "0.4.23+commit.124ca40d.Emscripten.clang"
  },
  "schemaVersion": "2.0.0",
  "updatedAt": "2018-05-26T23:45:45.951Z"
}